:020000040000FA
:060000000A128A110E280D
:10000800FE00030EF5000A08F6007F08F7000A1242
:100018008A11212C0A128A1111280A128A11FD2725
:100028000A128A11CD000A128A11FE270A128A11B1
:10003800CE008313393084004D300A128A11F82417
:100048000A128A11F801F90183010A128A11FF2D97
:1000580083120313B50013303406031D34283528E2
:1000680069280A128A15C8250A128A11343083129F
:100078000313A4008030A5008030A6000A128A1558
:1000880080260A128A119F3083120313A40080303D
:10009800A500C030A6000A128A1580260A128A1105
:1000A800453083120313A4008030A500D030A60089
:1000B8000A128A1580260A128A1183120313BB01B9
:1000C800BC01B901BA01C0011215350A03196D281E
:1000D8006E28DF282A303506031973287428DF288C
:1000E80023303506031979287A28DF2802304002A0
:1000F80003187F288028A8283C08AB003B08AA00E2
:100108000A30A8000030A9000A128A119F240A1296
:100118008A11831203132908AF002808AE000A3099
:10012800B0000030B1000A128A1559260A128A1145
:100138008312031335082E07BB0000300318013063
:100148002F07BC00BF01DC2802304002031CAD2889
:10015800AE28DC28043040020318B328B428DC2871
:100168003A08AB003908AA000A30A8000030A900F4
:100178000A128A119F240A128A118312031329086A
:10018800AF002808AE000A30B0000030B1000A12F3
:100198008A1559260A128A118312031335082E0765
:1001A800B9000030031801302F07BA000130BF0032
:1001B8000130C007F5282A303506031DE428E52854
:1001C800EC28BF01C001BB01BC01B901BA01F52887
:1001D80023303506031DF128F228F52812110330C3
:1001E8009B290A30A0000030A1003A08A300390872
:1001F800A2000A128A1529270A128A1183120313E8
:100208002008303ECA000A30A8000030A9003A0889
:10021800AB003908AA000A128A119F240A128A110F
:10022800831203132808303ECB000A30A0000030A8
:10023800A1003C08A3003B08A2000A128A1529273E
:100248000A128A11831203132008303EC7000A30AD
:10025800A8000030A9003C08AB003B08AA000A121D
:100268008A119F240A128A11831203132808303E28
:10027800C8003F08031D412942296C294A30A400BF
:100288000030A500C630A6000A128A1580260A1278
:100298008A11831203134203031D53295429602929
:1002A8000F30A4008030A500C930A6000A128A15B4
:1002B80080260A128A119A294730A4000030A50026
:1002C800C930A6000A128A1580260A128A119A29AC
:1002D8003F03031D702971299A294730A400003073
:1002E800A500C930A6000A128A1580260A128A11AA
:1002F800831203134203031D822983298F290F3098
:10030800A4008030A500C630A6000A128A158026EF
:100318000A128A119A294A30A4000030A500C63072
:10032800A6000A128A1580260A128A1114300800BB
:1003380083120313B10011302E06031DA429A52929
:10034800DA290A128A15C8250A128A115630831228
:100358000313A4008030A5008030A6000A128A1575
:1003680080260A128A11B63083120313A400803043
:10037800A500C030A6000A128A1580260A128A1122
:10038800453083120313A4008030A500D030A600A6
:100398000A128A1580260A128A118312031312156B
:1003A800BE01C0010130CD001430F02A4D03031DF9
:1003B800DE29DF299D2A310A0319E329E429052AC0
:1003C8002A3031060319E929EA29052A233031069A
:1003D8000319EF29F029052A033040020318F529EB
:1003E800F6292F2A0A30A0003E080A128A15EA25A3
:1003F8000A128A11831203133107BE000130C007A5
:100408002F2A2A303106031D0A2A0B2A0E2ABE017A
:10041800C0012F2A23303106031D132A142A2F2A3C
:10042800FB303E02031C192A1A2A1C2AFA30BE0085
:100438003E08031D202A212A232AB430BE00CD01FC
:100448003C30BB000030BC000130C1000A128A15E4
:10045800C8250A128A11643083120313A0000030E1
:10046800A1003E08AF00B0012F08A2003008A30089
:100478000A128A1529270A128A11831203132008DF
:10048800303EC3000A30A8000030A9000A30A0009E
:100498000030A1003E08AF00B0012F08A2003008CC
:1004A800A3000A128A1529270A128A118312031334
:1004B8002108AB002008AA000A128A119F240A12F8
:1004C8008A11831203132808303EC4000A30A8009A
:1004D8000030A9003E08AF00B0012F08AA0030087C
:1004E800AB000A128A119F240A128A11831203137D
:1004F8002808303EC500C60142080319842A852A07
:10050800912A4330A4000030A500C630A6000A1284
:100518008A1580260A128A11D8290E30A400803044
:10052800A500C630A6000A128A1580260A128A116A
:10053800D8291230A4008030A5008030A6000A1205
:100548008A1580260A128A11853083120313A400A3
:100558008030A500C030A6000A128A1580260A122B
:100568008A110A3083120313A0000030A1003C084E
:10057800A3003B08A2000A128A1529270A128A1129
:10058800831203132008303EC7000A30A800003049
:10059800A9003C08AB003B08AA000A128A119F2454
:1005A8000A128A11831203132808303EC800C901B1
:1005B8004730A4000030A500CC30A6000A128A15E6
:1005C80080260A128A11831203133B083C04031D78
:1005D800EE2AEF2AD8290230080083120313B2004A
:1005E80012302E06031DF92AFA2A3B2B0A128A1505
:1005F800C8250A128A11FF3083120313B200C030D3
:10060800A4008030A5008130A6000A128A15802631
:100618000A128A11763083120313A4008030A500D1
:10062800C130A6000A128A1580260A128A11C9301A
:1006380083120313A4008030A5009130A6000A128B
:100648008A1580260A128A11E93083120313A4003E
:100658008030A500D130A6000A128A1580260A1219
:100668008A11013083120313C100121507153B08C4
:100678003C04031D402B412B7F2B39083A04031DF2
:10068800462B472B7F2B0A128A15C8250A128A1176
:100698008312031312110711C101AB30A40080307B
:1006A800A500C430A6000A128A1580260A128A11EB
:1006B800663083120313A4008030A5009030A60092
:1006C8000A128A1580260A128A11831203138714C4
:1006D800403083120313B1006A30B0009730AF0086
:1006E800AF0B742BB00B742BB10B742B8312031349
:1006F80087100130202C04303206031D842B852BF3
:10070800932B3D08031D892B8A2B932B3B081E3EF8
:10071800BB003C080318013E003EBC00A02B04307F
:100728003206031D982B992BA02B3D03031D9D2BEF
:100738009E2BA02B1215071505303206031DA52B7D
:10074800A62BAA2B0130BD00071112110630320664
:10075800031DAF2BB02BB42B12110711C1017D2B38
:100768000A30A0000030A1003A08A3003908A2000E
:100778000A128A1529270A128A11831203132008DC
:10078800303ECA000A30A8000030A9003A08AB0081
:100798003908AA000A128A119F240A128A118312A0
:1007A80003132808303ECB00CC010A30A0000030EB
:1007B800A1003C08A3003B08A2000A128A152927B9
:1007C8000A128A11831203132008303EC7000A3028
:1007D800A8000030A9003C08AB003B08AA000A1298
:1007E8008A119F240A128A11831203132808303EA3
:1007F800C8004A30A4000030A5008930A6000A12BB
:100808008A1580260A128A118B3083120313A400DA
:100818003A300A128A15FF250A128A1147308312C4
:100828000313A4000030A5008C30A6000A128A1514
:1008380080260A128A1114300800831203138C1CB4
:10084800262C272C962C0130F8070318F90A0030BB
:10085800F9077130F0000230F1007908F3007808E8
:10086800F2000A128A15B3260A128A117008710456
:10087800031D3F2C402C4A2C8312031342080319F2
:10088800462C482C0130492C0030C200E230780652
:10089800043003197906031D522C532C932CF801AC
:1008A800F901831203134103031D5B2C5C2C932C69
:1008B8003C08803AFF0080307F02031D652C013020
:1008C8003B02031C682C692C722CFF308312031323
:1008D800BB070318BC0AFF30BC07932C8312031311
:1008E8003B083C04031D792C7A2C932C3A08803A57
:1008F800FF0080307F02031D832C01303902031C66
:10090800862C872C932CFF3083120313B907031806
:10091800BA0AFF30BA073B30BB000030BC00831274
:1009280003138C107708FF0076088A00750E830081
:10093800FE0E7E0E090083120313AD01AB1FA52C1A
:10094800A62CAD2CAA09AB09AA0A0319AB0A0130D7
:10095800AD00A91FB02CB12CB62CA809A909A80A6A
:100968000319A90A280829040319BB2CBC2CE92C53
:100978000130AC00C82C01300310A80DA90DFF3EB2
:10098800031DC02C0130AC07A91FCB2CCC2CBF2CCD
:1009980029082B02031DD22C28082A02031CD52C57
:1009A800D62CDC2C2808AA022908031CAB03AB02AE
:1009B80001300310A90CA80CFF3E031DDD2C0130EB
:1009C800AC02031DE82CE92CCC2C2D080319ED2CC6
:1009D800EE2CF32CAA09AB09AA0A0319AB0A2B08B7
:1009E800A9002A08A800080064008001840A0406F7
:1009F800031900340406F92CFF1B0A2D83137F18F2
:100A080083170008840A0319FF0A080005308A00C2
:100A18000408840A820700342034203450346F34A8
:100A280077346534723469346E34673420344F3423
:100A38004E342034203420340034203420345034D0
:100A4800723465342D34483465346134743469340F
:100A58006E346734203420342034003420344D344C
:100A68006934633472346F3477346134763465347E
:100A780020344F34763465346E34203400345334A3
:100A8800453454342034543449344D3445342034B6
:100A98003C344D344D343A34533453343E340034BA
:100AA8002A343A3443344C344534413452342034B3
:100AB800203423343A3445344E3454344534523493
:100AC80000345334453454342034543445344D348C
:100AD8005034203428345E344334293420342034CC
:100AE800003445346E346A346F34793420347934C0
:100AF8006F347534723420346D34653461346C3439
:100B0800003434342E34533454344134523454344D
:100B18002F3452344534533455344D34453400342D
:100B28002034543469346D34653420344C3465349D
:100B3800663474343A342034003433342E34433435
:100B48006F346E34763465346334743469346F3496
:100B58006E340034543449344D3445343A342034F6
:100B6800303430343A343034303400345434693426
:100B78006D346534203455345034213421342134D3
:100B88000034543445344D3450343A3420343034FD
:100B9800303430340034543449344D3445342034FE
:100BA8003D3420342034003435342E34503441342C
:100BB800553453344534003432342E344734723487
:100BC80069346C346C34003431342E344D34693427
:100BD800633472346F34003434342E345334743400
:100BE800613472347434003436342E34533454340B
:100BF8004F34503400340A128A1514260A128A1106
:100C0800013083120313B6001030B7000A128A1598
:100C18008E270A128A110A128A15C8250A128A1101
:100C280001300A128A1532260A128A118312031316
:100C3800B800B92ED930A4008030A5008030A600B5
:100C48000A128A1580260A128A11D13083120313D8
:100C5800A4008030A500C030A6000A128A1580269C
:100C68000A128A11923083120313A4008030A5005F
:100C78009030A6000A128A1580260A128A11E130DD
:100C880083120313A4008030A500D030A6000A12F6
:100C98008A1580260A128A1183120313380303194E
:100CA800562E572E5D2E02303806031D5C2E5D2E03
:100CB800642E023083120313B6001330B700142ECB
:100CC80003303806031D692E6A2E6F2E0430B600D5
:100CD8001130B700142E04303806031D742E752EFB
:100CE800142EB901BA011E30BB000030BC0003301D
:100CF800B6001230B700142E3708B40038080A12AC
:100D08008A112C200A128A11033A031D8C2E8D2E6B
:100D1800942E033083120313B6001230B700142E3A
:100D2800103083120313B700142E3708AE003808AA
:100D38000A128A119C210A128A11023A031DA52E51
:100D4800A62E942E5D2E3708AE0038080A128A1196
:100D5800F1220A128A11013A031DB32EB42E942EE1
:100D6800013083120313B6000F2E3608013A031917
:100D78001E2E033A0319802E013A0319A72E073AAB
:100D88000319992E142E0A128A110E28831203139E
:100D980088110815881408146430A0000030A100D8
:100DA800FF30A0070318A10AFF30A107200A031D7E
:100DB800E12E210A031DE12EE22ED42E0618E52E7F
:100DC800E62EE82E01306D2F8618EB2EEC2EEE2E37
:100DD80002306D2F0619F12EF22EF42E03306D2FEE
:100DE80088150811881408146430A0000030A10088
:100DF800FF30A0070318A10AFF30A107200A031D2E
:100E0800092F210A031D092F0A2FFC2E06180D2F62
:100E18000E2F102F04306D2F8618132F142F162F16
:100E280005306D2F0619192F1A2F1C2F06306D2F1C
:100E380088150815881008146430A0000030A10037
:100E4800FF30A0070318A10AFF30A107200A031DDD
:100E5800312F210A031D312F322F242F0618352F49
:100E6800362F382F07306D2F86183B2F3C2F3E2FFB
:100E780008306D2F0619412F422F442F09306D2F4E
:100E880088150815881408106430A0000030A100E7
:100E9800FF30A0070318A10AFF30A107200A031D8D
:100EA800592F210A031D592F5A2F4C2F06185D2F31
:100EB8005E2F602F2A306D2F8618632F642F662FC0
:100EC80000306D2F0619692F6A2F6C2F23306D2F74
:100ED800FF300800C33083120313A500CC30A400F0
:100EE800A40B742FA50B742F000083120313A00109
:100EF80030300A128A15EB260A128A111B30831227
:100F08000313A5009D30A400A40B882FA50B882FE0
:100F18008D2F83120313A00130300A128A15EB2695
:100F28000A128A11A53083120313A400A40B9A2F66
:100F38009D2F83120313A00130300A128A15EB2665
:100F48000A128A11A72FA82F000083120313A001E9
:100F580002300A128A15EB260A128A11A53083126A
:100F68000313A400A40BB62FB92F83120313A001F7
:100F780028300A128A15EB260A128A11A530831224
:100F88000313A400A40BC62FC92F83120313A001B7
:100F980001300A128A15EB260A128A1104308312CC
:100FA8000313A5003D30A400A40BD82FA50BD82F00
:100FB80083120313A0010C300A128A15EB260A12B9
:100FC8008A11A53083120313A400A40BE92FEC2F78
:100FD8000800831603130608073886000808F03946
:100FE80088008113831203138815081588140814C0
:060FF80008000134013481
:101B900083120313A00101300A128A15EB260A12E0
:101BA0008A150800831603138801091189100A1287
:101BB0008A116E270A128A15080083120313121461
:101BC0009214FA308316031392008C1483120313B9
:101BD0001211080083120313A200A101221CF12D8F
:101BE000F22DF42D2008A1070310A00D0310A20C64
:101BF0002208031DFC2DFD2DEE2D21080800831267
:101C00000313A500A00124080A128A15EB260A1264
:101C10008A1583120313A001A00A25080A128A1547
:101C2000EB260A128A1508000A128A15D2250A1212
:101C30008A150A128A11ED270A128A150A128A15C4
:101C4000DD250A128A1583160313871083120313E6
:101C500087108316031307118312031307110B1741
:101C60008B17080083120313A2000A128A11CA26D6
:101C70000A128A1583120313A3002208031D412EA2
:101C8000422E442E2308582E230A0319482E492E8B
:101C9000502E4E0803194D2E4E2E502ECE01422EA0
:101CA000230A031D542E552E572E0130CE00FF302F
:101CB000080083120313B201B3012E1C602E612EA3
:101CC000672E3008B2070318B30A3108B307013092
:101CD0000310B00DB10DFF3E031D682E013003103F
:101CE000AF0CAE0CFF3E031D6F2E2E082F04031DFC
:101CF0007A2E7B2E5D2E3308AF003208AE0008002E
:101D000083120313A00126080A128A15EB260A1271
:101D10008A15A22EA001A00A2508FF00240884002D
:101D20000A128A1100250A128A150A128A15EB2650
:101D30000A128A15013083120313A4070318A50A97
:101D40000030A507831203132508FF002408840030
:101D50000A128A1100250A128A15003A031DB12EB3
:101D6000B22E8A2E0800700871040319B82EB92EFD
:101D7000E62E0130F400C52E01300310F00DF10DF8
:101D8000FF3E031DBD2E0130F407F11FC82EC92EE2
:101D9000BC2E71087302031DCF2E70087202031C43
:101DA000D22ED32ED92E7008F2027108031CF30331
:101DB000F30201300310F10CF00CFF3E031DDA2E8C
:101DC0000130F402031DE52EE62EC92E7308F10042
:101DD0007208F000080083120313A3002018F12EEC
:101DE000F52E831203130915F82E8312031309111C
:101DF0002308F03988008914A53083120313A10049
:101E0000A10B002F032F83120313891023080F390E
:101E1000A10003300310A10DFF3E031D0A2F031084
:101E2000210D88008914A53083120313A100A10B92
:101E3000172F1A2F8312031389101B3083120313D9
:101E4000A2009D30A100A10B232FA20B232F282F2E
:101E5000080083120313A501A11F2F2F302F372F46
:101E6000A009A109A00A0319A10A0130A500A31F16
:101E70003A2F3B2F422FA209A309A20A0319A30A52
:101E80000130A506A601A701200821040319492F46
:101E90004A2F7F2F0130A400562F01300310A00DD0
:101EA000A10DFF3E031D4E2F0130A407A11F592F86
:101EB0005A2F4D2F01300310A60DA70DFF3E031D15
:101EC0005B2F21082302031D672F20082202031C19
:101ED0006A2F6B2F722F2008A2022108031CA30374
:101EE000A302261401300310A10CA00CFF3E031D19
:101EF000732F0130A402031D7E2F7F2F5A2F250838
:101F00000319832F842F892FA609A709A60A03196D
:101F1000A70A2708A1002608A000080083120313BF
:101F2000AA01AB01831203132A08803EA400FF30EC
:101F30000A128A15FF250A128A150130831203132B
:101F4000AA070318AB0A0030AB072B08803AFF0042
:101F500080307F02031DAE2F10302A02031CB12FE8
:101F6000B22F922F013083120313A4008030A500FA
:101F7000C030A6000A128A1580260A128A1523305C
:101F800083120313A4008030A5009030A6000A122B
:101F90008A1580260A128A1583120313AC01AD013B
:101FA000831203132C08D03EA400FF300A128A15B6
:101FB000FF250A128A15013083120313AC07031898
:101FC000AD0A0030AD072D08803AFF0080307F0257
:101FD000031DEC2F10302C02031CEF2FF02FD02FFD
:101FE000273083120313A9000D30A8002530A70065
:101FF000A70BF82FA80BF82FA90BF82FFF2F08001D
:02400E00FB3F76
:00000001FF
